{
  "contractName": "EtherSender",
  "abi": [
    {
      "inputs": [],
      "stateMutability": "nonpayable",
      "type": "constructor"
    },
    {
      "inputs": [],
      "name": "owner",
      "outputs": [
        {
          "internalType": "address",
          "name": "",
          "type": "address"
        }
      ],
      "stateMutability": "view",
      "type": "function",
      "constant": true
    },
    {
      "inputs": [
        {
          "internalType": "address payable",
          "name": "recipient",
          "type": "address"
        },
        {
          "internalType": "uint256",
          "name": "amount",
          "type": "uint256"
        }
      ],
      "name": "sendEther",
      "outputs": [],
      "stateMutability": "payable",
      "type": "function",
      "payable": true
    },
    {
      "inputs": [],
      "name": "deposit",
      "outputs": [],
      "stateMutability": "payable",
      "type": "function",
      "payable": true
    },
    {
      "inputs": [],
      "name": "getBalance",
      "outputs": [
        {
          "internalType": "uint256",
          "name": "",
          "type": "uint256"
        }
      ],
      "stateMutability": "view",
      "type": "function",
      "constant": true
    }
  ],
  "bytecode": "0x608060405234801561001057600080fd5b50336000806101000a81548173ffffffffffffffffffffffffffffffffffffffff021916908373ffffffffffffffffffffffffffffffffffffffff16021790555061058f806100606000396000f3fe60806040526004361061003f5760003560e01c806312065fe0146100445780638da5cb5b1461006f578063c1756a2c1461009a578063d0e30db0146100b6575b600080fd5b34801561005057600080fd5b506100596100c0565b6040516100669190610292565b60405180910390f35b34801561007b57600080fd5b506100846100c8565b60405161009191906102ee565b60405180910390f35b6100b460048036038101906100af9190610378565b6100ec565b005b6100be610277565b005b600047905090565b60008054906101000a900473ffffffffffffffffffffffffffffffffffffffff1681565b60008054906101000a900473ffffffffffffffffffffffffffffffffffffffff1673ffffffffffffffffffffffffffffffffffffffff163373ffffffffffffffffffffffffffffffffffffffff161461017a576040517f08c379a00000000000000000000000000000000000000000000000000000000081526004016101719061043b565b60405180910390fd5b478111156101bd576040517f08c379a00000000000000000000000000000000000000000000000000000000081526004016101b4906104cd565b60405180910390fd5b600073ffffffffffffffffffffffffffffffffffffffff168273ffffffffffffffffffffffffffffffffffffffff160361022c576040517f08c379a000000000000000000000000000000000000000000000000000000000815260040161022390610539565b60405180910390fd5b8173ffffffffffffffffffffffffffffffffffffffff166108fc829081150290604051600060405180830381858888f19350505050158015610272573d6000803e3d6000fd5b505050565b565b6000819050919050565b61028c81610279565b82525050565b60006020820190506102a76000830184610283565b92915050565b600073ffffffffffffffffffffffffffffffffffffffff82169050919050565b60006102d8826102ad565b9050919050565b6102e8816102cd565b82525050565b600060208201905061030360008301846102df565b92915050565b600080fd5b6000610319826102ad565b9050919050565b6103298161030e565b811461033457600080fd5b50565b60008135905061034681610320565b92915050565b61035581610279565b811461036057600080fd5b50565b6000813590506103728161034c565b92915050565b6000806040838503121561038f5761038e610309565b5b600061039d85828601610337565b92505060206103ae85828601610363565b9150509250929050565b600082825260208201905092915050565b7f4f6e6c7920746865206f776e65722063616e2063616c6c20746869732066756e60008201527f6374696f6e2e0000000000000000000000000000000000000000000000000000602082015250565b60006104256026836103b8565b9150610430826103c9565b604082019050919050565b6000602082019050818103600083015261045481610418565b9050919050565b7f496e73756666696369656e742062616c616e636520696e2074686520636f6e7460008201527f726163742e000000000000000000000000000000000000000000000000000000602082015250565b60006104b76025836103b8565b91506104c28261045b565b604082019050919050565b600060208201905081810360008301526104e6816104aa565b9050919050565b7f496e76616c696420726563697069656e7420616464726573732e000000000000600082015250565b6000610523601a836103b8565b915061052e826104ed565b602082019050919050565b6000602082019050818103600083015261055281610516565b905091905056fea2646970667358221220fca6c2d038e02469fb9adfe476fcd8b9c0e4363f5fa3956a3f56df80200e293f64736f6c63430008130033",
  "immutableReferences": {},
  "source": "// SPDX-License-Identifier: MIT\r\npragma solidity >=0.4.22 <0.9.0;\r\n\r\ncontract EtherSender {\r\n    address public owner;\r\n\r\n    // Modifier to restrict access to the owner only\r\n    modifier onlyOwner() {\r\n        require(msg.sender == owner, \"Only the owner can call this function.\");\r\n        _;\r\n    }\r\n\r\n    // Constructor to set the contract owner\r\n    constructor() {\r\n        owner = msg.sender;\r\n    }\r\n\r\n    // Function to send Ether to a specific address\r\n    function sendEther(address payable recipient, uint256 amount) public payable onlyOwner {\r\n        require(amount <= address(this).balance, \"Insufficient balance in the contract.\");\r\n        require(recipient != address(0), \"Invalid recipient address.\");\r\n\r\n        // Transfer the specified amount to the recipient\r\n        recipient.transfer(amount);\r\n    }\r\n\r\n    // Function to deposit Ether into the contract\r\n    function deposit() public payable {}\r\n\r\n    // Function to check the contract's balance\r\n    function getBalance() public view returns (uint256) {\r\n        return address(this).balance;\r\n    }\r\n}\r\n",
  "sourcePath": "C:\\Users\\faiza\\IdeaProjects\\SmileChain\\web3\\contracts\\EtherSender.sol",
  "compiler": {
    "name": "solc",
    "version": "0.8.19+commit.7dd6d404.Emscripten.clang"
  },
  "schemaVersion": "3.4.16",
  "updatedAt": "2025-01-11T15:21:47.787Z",
  "networkType": "ethereum",
  "devdoc": {
    "kind": "dev",
    "methods": {},
    "version": 1
  },
  "userdoc": {
    "kind": "user",
    "methods": {},
    "version": 1
  }
}