{
  "contractName": "Rewards",
  "abi": [
    {
      "inputs": [],
      "stateMutability": "nonpayable",
      "type": "constructor"
    },
    {
      "anonymous": false,
      "inputs": [
        {
          "indexed": false,
          "internalType": "uint256",
          "name": "amount",
          "type": "uint256"
        }
      ],
      "name": "ContractToppedUp",
      "type": "event"
    },
    {
      "anonymous": false,
      "inputs": [
        {
          "indexed": true,
          "internalType": "uint256",
          "name": "points",
          "type": "uint256"
        },
        {
          "indexed": false,
          "internalType": "uint256",
          "name": "etherValue",
          "type": "uint256"
        },
        {
          "indexed": true,
          "internalType": "address",
          "name": "modifiedBy",
          "type": "address"
        },
        {
          "indexed": false,
          "internalType": "uint256",
          "name": "timestamp",
          "type": "uint256"
        }
      ],
      "name": "EtherRewardModified",
      "type": "event"
    },
    {
      "anonymous": false,
      "inputs": [
        {
          "indexed": true,
          "internalType": "uint256",
          "name": "points",
          "type": "uint256"
        },
        {
          "indexed": false,
          "internalType": "string",
          "name": "details",
          "type": "string"
        },
        {
          "indexed": true,
          "internalType": "address",
          "name": "modifiedBy",
          "type": "address"
        },
        {
          "indexed": false,
          "internalType": "uint256",
          "name": "timestamp",
          "type": "uint256"
        }
      ],
      "name": "OtherRewardModified",
      "type": "event"
    },
    {
      "anonymous": false,
      "inputs": [
        {
          "indexed": true,
          "internalType": "address",
          "name": "account",
          "type": "address"
        },
        {
          "indexed": false,
          "internalType": "uint256",
          "name": "pointsAdded",
          "type": "uint256"
        }
      ],
      "name": "PointsAdded",
      "type": "event"
    },
    {
      "anonymous": false,
      "inputs": [
        {
          "indexed": true,
          "internalType": "address",
          "name": "account",
          "type": "address"
        },
        {
          "indexed": false,
          "internalType": "uint256",
          "name": "pointsRedeemed",
          "type": "uint256"
        },
        {
          "indexed": false,
          "internalType": "enum Rewards.RewardType",
          "name": "rewardType",
          "type": "uint8"
        },
        {
          "indexed": false,
          "internalType": "string",
          "name": "rewardDetails",
          "type": "string"
        }
      ],
      "name": "PointsRedeemed",
      "type": "event"
    },
    {
      "anonymous": false,
      "inputs": [
        {
          "indexed": true,
          "internalType": "uint256",
          "name": "points",
          "type": "uint256"
        },
        {
          "indexed": true,
          "internalType": "address",
          "name": "modifiedBy",
          "type": "address"
        },
        {
          "indexed": false,
          "internalType": "uint256",
          "name": "timestamp",
          "type": "uint256"
        }
      ],
      "name": "RewardDeleted",
      "type": "event"
    },
    {
      "inputs": [],
      "name": "owner",
      "outputs": [
        {
          "internalType": "address",
          "name": "",
          "type": "address"
        }
      ],
      "stateMutability": "view",
      "type": "function",
      "constant": true
    },
    {
      "inputs": [
        {
          "internalType": "uint256",
          "name": "",
          "type": "uint256"
        }
      ],
      "name": "rewardKeys",
      "outputs": [
        {
          "internalType": "uint256",
          "name": "",
          "type": "uint256"
        }
      ],
      "stateMutability": "view",
      "type": "function",
      "constant": true
    },
    {
      "inputs": [
        {
          "internalType": "uint256",
          "name": "_points",
          "type": "uint256"
        },
        {
          "internalType": "uint256",
          "name": "_etherValue",
          "type": "uint256"
        },
        {
          "internalType": "string",
          "name": "_details",
          "type": "string"
        }
      ],
      "name": "modifyReward",
      "outputs": [],
      "stateMutability": "nonpayable",
      "type": "function"
    },
    {
      "inputs": [
        {
          "internalType": "uint256",
          "name": "_points",
          "type": "uint256"
        }
      ],
      "name": "deleteReward",
      "outputs": [],
      "stateMutability": "nonpayable",
      "type": "function"
    },
    {
      "inputs": [
        {
          "internalType": "uint256",
          "name": "_points",
          "type": "uint256"
        }
      ],
      "name": "getReward",
      "outputs": [
        {
          "internalType": "uint256",
          "name": "etherReward",
          "type": "uint256"
        },
        {
          "internalType": "string",
          "name": "otherReward",
          "type": "string"
        }
      ],
      "stateMutability": "view",
      "type": "function",
      "constant": true
    },
    {
      "inputs": [
        {
          "internalType": "uint256",
          "name": "pointsToRedeem",
          "type": "uint256"
        }
      ],
      "name": "redeemPoints",
      "outputs": [],
      "stateMutability": "nonpayable",
      "type": "function"
    },
    {
      "inputs": [
        {
          "internalType": "address",
          "name": "_account",
          "type": "address"
        },
        {
          "internalType": "uint256",
          "name": "pointsToAdd",
          "type": "uint256"
        }
      ],
      "name": "addPoints",
      "outputs": [],
      "stateMutability": "nonpayable",
      "type": "function"
    },
    {
      "inputs": [],
      "name": "topUpContract",
      "outputs": [],
      "stateMutability": "payable",
      "type": "function",
      "payable": true
    },
    {
      "inputs": [
        {
          "internalType": "address",
          "name": "_account",
          "type": "address"
        }
      ],
      "name": "getPointsBalance",
      "outputs": [
        {
          "internalType": "uint256",
          "name": "",
          "type": "uint256"
        }
      ],
      "stateMutability": "view",
      "type": "function",
      "constant": true
    },
    {
      "inputs": [],
      "name": "getContractBalance",
      "outputs": [
        {
          "internalType": "uint256",
          "name": "",
          "type": "uint256"
        }
      ],
      "stateMutability": "view",
      "type": "function",
      "constant": true
    },
    {
      "inputs": [],
      "name": "getRewardKeys",
      "outputs": [
        {
          "internalType": "uint256[]",
          "name": "",
          "type": "uint256[]"
        }
      ],
      "stateMutability": "view",
      "type": "function",
      "constant": true
    }
  ],
  "bytecode": "0x60a060405234801561001057600080fd5b503373ffffffffffffffffffffffffffffffffffffffff1660808173ffffffffffffffffffffffffffffffffffffffff168152505060805161212361007c600039600081816103d5015281816106980152818161089e015281816108c20152610afe01526121236000f3fe6080604052600436106100b9576000357c0100000000000000000000000000000000000000000000000000000000900480639b3b20d1116100815780639b3b20d1146101a4578063bf66e2c8146101ae578063e229db93146101d9578063e707f36f14610216578063e7cf1ab714610253578063e92e92e71461027c576100b9565b80631c4b774b146100be5780632eef0173146100fc578063507cd30f146101255780636f9fb98a1461014e5780638da5cb5b14610179575b600080fd5b3480156100ca57600080fd5b506100e560048036038101906100e0919061113e565b6102a5565b6040516100f392919061120a565b60405180910390f35b34801561010857600080fd5b50610123600480360381019061011e919061136f565b6103d3565b005b34801561013157600080fd5b5061014c6004803603810190610147919061143c565b610696565b005b34801561015a57600080fd5b5061016361087d565b604051610170919061147c565b60405180910390f35b34801561018557600080fd5b5061018e61089c565b60405161019b91906114a6565b60405180910390f35b6101ac6108c0565b005b3480156101ba57600080fd5b506101c36109ca565b6040516101d0919061157f565b60405180910390f35b3480156101e557600080fd5b5061020060048036038101906101fb919061113e565b610a22565b60405161020d919061147c565b60405180910390f35b34801561022257600080fd5b5061023d600480360381019061023891906115a1565b610a46565b60405161024a919061147c565b60405180910390f35b34801561025f57600080fd5b5061027a6004803603810190610275919061113e565b610afc565b005b34801561028857600080fd5b506102a3600480360381019061029e919061113e565b610cda565b005b60006060600160008481526020019081526020016000205491506002600084815260200190815260200160002080546102dd906115fd565b80601f0160208091040260200160405190810160405280929190818152602001828054610309906115fd565b80156103565780601f1061032b57610100808354040283529160200191610356565b820191906000526020600020905b81548152906001019060200180831161033957829003601f168201915b505050505090506000821115610380578160405180602001604052806000815250915091506103ce565b60008151111561039357600091506103ce565b6040517f08c379a00000000000000000000000000000000000000000000000000000000081526004016103c5906116a0565b60405180910390fd5b915091565b7f000000000000000000000000000000000000000000000000000000000000000073ffffffffffffffffffffffffffffffffffffffff163373ffffffffffffffffffffffffffffffffffffffff1614610461576040517f08c379a000000000000000000000000000000000000000000000000000000000815260040161045890611732565b60405180910390fd5b600083116104a4576040517f08c379a000000000000000000000000000000000000000000000000000000000815260040161049b906117c4565b60405180910390fd5b600082111561053a578160016000858152602001908152602001600020819055506002600084815260200190815260200160002060006104e49190611097565b3373ffffffffffffffffffffffffffffffffffffffff16837fbb3adf2e5eae69467f650e4d5046955148708d9696bfcf7f9eda0e1a64dadef3844260405161052d9291906117e4565b60405180910390a361060e565b6000815111156105d2578060026000858152602001908152602001600020908161056491906119bf565b5060016000848152602001908152602001600020600090553373ffffffffffffffffffffffffffffffffffffffff16837f3ecb04e2e273f5fb263d0e9912585f2e7a1f1d6464541b358b744877c6d2e2f583426040516105c5929190611a91565b60405180910390a361060d565b6040517f08c379a000000000000000000000000000000000000000000000000000000000815260040161060490611b33565b60405180910390fd5b5b6000805b60038054905081101561066057846003828154811061063457610633611b53565b5b90600052602060002001540361064d5760019150610660565b808061065890611bb1565b915050610612565b50806106905760038490806001815401808255809150506001900390600052602060002001600090919091909150555b50505050565b7f000000000000000000000000000000000000000000000000000000000000000073ffffffffffffffffffffffffffffffffffffffff163373ffffffffffffffffffffffffffffffffffffffff1614610724576040517f08c379a000000000000000000000000000000000000000000000000000000000815260040161071b90611732565b60405180910390fd5b600073ffffffffffffffffffffffffffffffffffffffff168273ffffffffffffffffffffffffffffffffffffffff1603610793576040517f08c379a000000000000000000000000000000000000000000000000000000000815260040161078a90611c45565b60405180910390fd5b600081116107d6576040517f08c379a00000000000000000000000000000000000000000000000000000000081526004016107cd90611cd7565b60405180910390fd5b806000808473ffffffffffffffffffffffffffffffffffffffff1673ffffffffffffffffffffffffffffffffffffffff16815260200190815260200160002060008282546108249190611cf7565b925050819055508173ffffffffffffffffffffffffffffffffffffffff167f0fe6fcb45adaaa54f7e3491f6a7964049817f1e437f33587e634a4629fbcf3a682604051610871919061147c565b60405180910390a25050565b60003073ffffffffffffffffffffffffffffffffffffffff1631905090565b7f000000000000000000000000000000000000000000000000000000000000000081565b7f000000000000000000000000000000000000000000000000000000000000000073ffffffffffffffffffffffffffffffffffffffff163373ffffffffffffffffffffffffffffffffffffffff161461094e576040517f08c379a000000000000000000000000000000000000000000000000000000000815260040161094590611732565b60405180910390fd5b60003411610991576040517f08c379a000000000000000000000000000000000000000000000000000000000815260040161098890611d9d565b60405180910390fd5b7f13c6b5419cbef3b6ff82bd9ca5de643c7845cbdb2ad53bb39d29241ac7c33338346040516109c0919061147c565b60405180910390a1565b60606003805480602002602001604051908101604052809291908181526020018280548015610a1857602002820191906000526020600020905b815481526020019060010190808311610a04575b5050505050905090565b60038181548110610a3257600080fd5b906000526020600020016000915090505481565b60008073ffffffffffffffffffffffffffffffffffffffff168273ffffffffffffffffffffffffffffffffffffffff1603610ab6576040517f08c379a0000000000000000000000000000000000000000000000000000000008152600401610aad90611c45565b60405180910390fd5b6000808373ffffffffffffffffffffffffffffffffffffffff1673ffffffffffffffffffffffffffffffffffffffff168152602001908152602001600020549050919050565b7f000000000000000000000000000000000000000000000000000000000000000073ffffffffffffffffffffffffffffffffffffffff163373ffffffffffffffffffffffffffffffffffffffff1614610b8a576040517f08c379a0000000000000000000000000000000000000000000000000000000008152600401610b8190611732565b60405180910390fd5b6001600082815260200190815260200160002060009055600260008281526020019081526020016000206000610bc09190611097565b60005b600380549050811015610cd6578160038281548110610be557610be4611b53565b5b906000526020600020015403610cc35760036001600380549050610c099190611dbd565b81548110610c1a57610c19611b53565b5b906000526020600020015460038281548110610c3957610c38611b53565b5b90600052602060002001819055506003805480610c5957610c58611df1565b5b600190038181906000526020600020016000905590553373ffffffffffffffffffffffffffffffffffffffff16827f250e3b82ef98a0b49f098db8eb4b2cf10001cd3ef041a38fdee9f52d0cbdf3a042604051610cb6919061147c565b60405180910390a3610cd6565b8080610cce90611bb1565b915050610bc3565b5050565b6000339050816000808373ffffffffffffffffffffffffffffffffffffffff1673ffffffffffffffffffffffffffffffffffffffff168152602001908152602001600020541015610d60576040517f08c379a0000000000000000000000000000000000000000000000000000000008152600401610d5790611e6c565b60405180910390fd5b600060016000848152602001908152602001600020541115610ee1576000600160008481526020019081526020016000205490503073ffffffffffffffffffffffffffffffffffffffff1631811115610dee576040517f08c379a0000000000000000000000000000000000000000000000000000000008152600401610de590611efe565b60405180910390fd5b826000808473ffffffffffffffffffffffffffffffffffffffff1673ffffffffffffffffffffffffffffffffffffffff1681526020019081526020016000206000828254610e3c9190611dbd565b925050819055508173ffffffffffffffffffffffffffffffffffffffff166108fc829081150290604051600060405180830381858888f19350505050158015610e89573d6000803e3d6000fd5b508173ffffffffffffffffffffffffffffffffffffffff167f42a1741bd0d8bd5b606cad469a80c77c77963120ab9aab9def119d844f74ae64846000604051610ed3929190611fe1565b60405180910390a250611093565b6000600260008481526020019081526020016000208054610f01906115fd565b90501115611057576000600260008481526020019081526020016000208054610f29906115fd565b80601f0160208091040260200160405190810160405280929190818152602001828054610f55906115fd565b8015610fa25780601f10610f7757610100808354040283529160200191610fa2565b820191906000526020600020905b815481529060010190602001808311610f8557829003601f168201915b50505050509050826000808473ffffffffffffffffffffffffffffffffffffffff1673ffffffffffffffffffffffffffffffffffffffff1681526020019081526020016000206000828254610ff79190611dbd565b925050819055508173ffffffffffffffffffffffffffffffffffffffff167f42a1741bd0d8bd5b606cad469a80c77c77963120ab9aab9def119d844f74ae64846001846040516110499392919061201d565b60405180910390a250611092565b6040517f08c379a0000000000000000000000000000000000000000000000000000000008152600401611089906120cd565b60405180910390fd5b5b5050565b5080546110a3906115fd565b6000825580601f106110b557506110d4565b601f0160209004906000526020600020908101906110d391906110d7565b5b50565b5b808211156110f05760008160009055506001016110d8565b5090565b6000604051905090565b600080fd5b600080fd5b6000819050919050565b61111b81611108565b811461112657600080fd5b50565b60008135905061113881611112565b92915050565b600060208284031215611154576111536110fe565b5b600061116284828501611129565b91505092915050565b61117481611108565b82525050565b600081519050919050565b600082825260208201905092915050565b60005b838110156111b4578082015181840152602081019050611199565b60008484015250505050565b6000601f19601f8301169050919050565b60006111dc8261117a565b6111e68185611185565b93506111f6818560208601611196565b6111ff816111c0565b840191505092915050565b600060408201905061121f600083018561116b565b818103602083015261123181846111d1565b90509392505050565b600080fd5b600080fd5b7f4e487b7100000000000000000000000000000000000000000000000000000000600052604160045260246000fd5b61127c826111c0565b810181811067ffffffffffffffff8211171561129b5761129a611244565b5b80604052505050565b60006112ae6110f4565b90506112ba8282611273565b919050565b600067ffffffffffffffff8211156112da576112d9611244565b5b6112e3826111c0565b9050602081019050919050565b82818337600083830152505050565b600061131261130d846112bf565b6112a4565b90508281526020810184848401111561132e5761132d61123f565b5b6113398482856112f0565b509392505050565b600082601f8301126113565761135561123a565b5b81356113668482602086016112ff565b91505092915050565b600080600060608486031215611388576113876110fe565b5b600061139686828701611129565b93505060206113a786828701611129565b925050604084013567ffffffffffffffff8111156113c8576113c7611103565b5b6113d486828701611341565b9150509250925092565b600073ffffffffffffffffffffffffffffffffffffffff82169050919050565b6000611409826113de565b9050919050565b611419816113fe565b811461142457600080fd5b50565b60008135905061143681611410565b92915050565b60008060408385031215611453576114526110fe565b5b600061146185828601611427565b925050602061147285828601611129565b9150509250929050565b6000602082019050611491600083018461116b565b92915050565b6114a0816113fe565b82525050565b60006020820190506114bb6000830184611497565b92915050565b600081519050919050565b600082825260208201905092915050565b6000819050602082019050919050565b6114f681611108565b82525050565b600061150883836114ed565b60208301905092915050565b6000602082019050919050565b600061152c826114c1565b61153681856114cc565b9350611541836114dd565b8060005b8381101561157257815161155988826114fc565b975061156483611514565b925050600181019050611545565b5085935050505092915050565b600060208201905081810360008301526115998184611521565b905092915050565b6000602082840312156115b7576115b66110fe565b5b60006115c584828501611427565b91505092915050565b7f4e487b7100000000000000000000000000000000000000000000000000000000600052602260045260246000fd5b6000600282049050600182168061161557607f821691505b602082108103611628576116276115ce565b5b50919050565b7f4e6f2072657761726420666f756e6420666f722074686520737065636966696560008201527f6420706f696e74732e0000000000000000000000000000000000000000000000602082015250565b600061168a602983611185565b91506116958261162e565b604082019050919050565b600060208201905081810360008301526116b98161167d565b9050919050565b7f4f6e6c7920746865206f776e65722063616e2063616c6c20746869732066756e60008201527f6374696f6e2e0000000000000000000000000000000000000000000000000000602082015250565b600061171c602683611185565b9150611727826116c0565b604082019050919050565b6000602082019050818103600083015261174b8161170f565b9050919050565b7f506f696e7473206d7573742062652067726561746572207468616e207a65726f60008201527f2e00000000000000000000000000000000000000000000000000000000000000602082015250565b60006117ae602183611185565b91506117b982611752565b604082019050919050565b600060208201905081810360008301526117dd816117a1565b9050919050565b60006040820190506117f9600083018561116b565b611806602083018461116b565b9392505050565b60008190508160005260206000209050919050565b60006020601f8301049050919050565b60008160020a8302905092915050565b6000600883026118727fffffffffffffffffffffffffffffffffffffffffffffffffffffffffffffffff82611832565b61187c8683611832565b95508019841693508086168417925050509392505050565b6000819050919050565b60006118b96118b46118af84611108565b611894565b611108565b9050919050565b6000819050919050565b6118d38361189e565b6118e76118df826118c0565b848454611842565b825550505050565b600090565b6118fc6118ef565b6119078184846118ca565b505050565b5b8181101561192b576119206000826118f4565b60018101905061190d565b5050565b601f821115611970576119418161180d565b61194a84611822565b81016020851015611959578190505b61196d61196585611822565b83018261190c565b50505b505050565b60008160020a8304905092915050565b600061199660001984600802611975565b1980831691505092915050565b60006119af8383611985565b9150826002028217905092915050565b6119c88261117a565b67ffffffffffffffff8111156119e1576119e0611244565b5b6119eb82546115fd565b6119f682828561192f565b600060209050601f831160018114611a295760008415611a17578287015190505b611a2185826119a3565b865550611a89565b601f198416611a378661180d565b60005b82811015611a5f57848901518255600182019150602085019450602081019050611a3a565b86831015611a7c5784890151611a78601f891682611985565b8355505b6001600288020188555050505b505050505050565b60006040820190508181036000830152611aab81856111d1565b9050611aba602083018461116b565b9392505050565b7f45697468657220657468657256616c7565206f722064657461696c73206d757360008201527f742062652070726f76696465642e000000000000000000000000000000000000602082015250565b6000611b1d602e83611185565b9150611b2882611ac1565b604082019050919050565b60006020820190508181036000830152611b4c81611b10565b9050919050565b7f4e487b7100000000000000000000000000000000000000000000000000000000600052603260045260246000fd5b7f4e487b7100000000000000000000000000000000000000000000000000000000600052601160045260246000fd5b6000611bbc82611108565b91507fffffffffffffffffffffffffffffffffffffffffffffffffffffffffffffffff8203611bee57611bed611b82565b5b600182019050919050565b7f496e76616c6964206163636f756e7420616464726573732e0000000000000000600082015250565b6000611c2f601883611185565b9150611c3a82611bf9565b602082019050919050565b60006020820190508181036000830152611c5e81611c22565b9050919050565b7f506f696e747320746f20616464206d757374206265206772656174657220746860008201527f616e207a65726f2e000000000000000000000000000000000000000000000000602082015250565b6000611cc1602883611185565b9150611ccc82611c65565b604082019050919050565b60006020820190508181036000830152611cf081611cb4565b9050919050565b6000611d0282611108565b9150611d0d83611108565b9250828201905080821115611d2557611d24611b82565b5b92915050565b7f546f702d757020616d6f756e74206d757374206265206772656174657220746860008201527f616e207a65726f2e000000000000000000000000000000000000000000000000602082015250565b6000611d87602883611185565b9150611d9282611d2b565b604082019050919050565b60006020820190508181036000830152611db681611d7a565b9050919050565b6000611dc882611108565b9150611dd383611108565b9250828203905081811115611deb57611dea611b82565b5b92915050565b7f4e487b7100000000000000000000000000000000000000000000000000000000600052603160045260246000fd5b7f4e6f7420656e6f75676820706f696e74732e0000000000000000000000000000600082015250565b6000611e56601283611185565b9150611e6182611e20565b602082019050919050565b60006020820190508181036000830152611e8581611e49565b9050919050565b7f496e73756666696369656e7420636f6e74726163742062616c616e636520666f60008201527f72204574686572207265776172642e0000000000000000000000000000000000602082015250565b6000611ee8602f83611185565b9150611ef382611e8c565b604082019050919050565b60006020820190508181036000830152611f1781611edb565b9050919050565b7f4e487b7100000000000000000000000000000000000000000000000000000000600052602160045260246000fd5b60028110611f5e57611f5d611f1e565b5b50565b6000819050611f6f82611f4d565b919050565b6000611f7f82611f61565b9050919050565b611f8f81611f74565b82525050565b7f4574686572205265776172640000000000000000000000000000000000000000600082015250565b6000611fcb600c83611185565b9150611fd682611f95565b602082019050919050565b6000606082019050611ff6600083018561116b565b6120036020830184611f86565b818103604083015261201481611fbe565b90509392505050565b6000606082019050612032600083018661116b565b61203f6020830185611f86565b818103604083015261205181846111d1565b9050949350505050565b7f4e6f2072657761726420617661696c61626c6520666f7220746865207370656360008201527f696669656420706f696e74732e00000000000000000000000000000000000000602082015250565b60006120b7602d83611185565b91506120c28261205b565b604082019050919050565b600060208201905081810360008301526120e6816120aa565b905091905056fea26469706673582212205f9d61b075da179193358562c29095b82c4a3ba7b325f139cef0d1c12a4103eb64736f6c63430008130033",
  "immutableReferences": {
    "6": [
      {
        "length": 32,
        "start": 981
      },
      {
        "length": 32,
        "start": 1688
      },
      {
        "length": 32,
        "start": 2206
      },
      {
        "length": 32,
        "start": 2242
      },
      {
        "length": 32,
        "start": 2814
      }
    ]
  },
  "source": "// SPDX-License-Identifier: MIT\r\npragma solidity >=0.8.0 <0.9.0;\r\n\r\ncontract Rewards {\r\n    enum RewardType {Ether, Other}\r\n\r\n    address public immutable owner;\r\n    mapping(address => uint256) private points;\r\n    mapping(uint256 => uint256) private etherRewards;\r\n    mapping(uint256 => string) private otherRewards;\r\n    uint256[] public rewardKeys; // Stores the points associated with all rewards\r\n\r\n    event PointsAdded(address indexed account, uint256 pointsAdded);\r\n    event PointsRedeemed(address indexed account, uint256 pointsRedeemed, RewardType rewardType, string rewardDetails);\r\n    event ContractToppedUp(uint256 amount);\r\n    event EtherRewardModified(uint256 indexed points, uint256 etherValue, address indexed modifiedBy, uint256 timestamp);\r\n    event OtherRewardModified(uint256 indexed points, string details, address indexed modifiedBy, uint256 timestamp);\r\n    event RewardDeleted(uint256 indexed points, address indexed modifiedBy, uint256 timestamp);\r\n\r\n    constructor() {\r\n        owner = msg.sender;\r\n    }\r\n\r\n    modifier onlyOwner() {\r\n        require(msg.sender == owner, \"Only the owner can call this function.\");\r\n        _;\r\n    }\r\n\r\n    function modifyReward(uint256 _points, uint256 _etherValue, string memory _details) public onlyOwner {\r\n        require(_points > 0, \"Points must be greater than zero.\");\r\n\r\n        if (_etherValue > 0) {\r\n            etherRewards[_points] = _etherValue;\r\n            delete otherRewards[_points];\r\n            emit EtherRewardModified(_points, _etherValue, msg.sender, block.timestamp);\r\n        } else if (bytes(_details).length > 0) {\r\n            otherRewards[_points] = _details;\r\n            delete etherRewards[_points];\r\n            emit OtherRewardModified(_points, _details, msg.sender, block.timestamp);\r\n        } else {\r\n            revert(\"Either etherValue or details must be provided.\");\r\n        }\r\n\r\n        // Add _points to rewardKeys if it's not already present\r\n        bool exists = false;\r\n        for (uint256 i = 0; i < rewardKeys.length; i++) {\r\n            if (rewardKeys[i] == _points) {\r\n                exists = true;\r\n                break;\r\n            }\r\n        }\r\n        if (!exists) {\r\n            rewardKeys.push(_points);\r\n        }\r\n    }\r\n\r\n    function deleteReward(uint256 _points) public onlyOwner {\r\n        delete etherRewards[_points];\r\n        delete otherRewards[_points];\r\n\r\n        for (uint256 i = 0; i < rewardKeys.length; i++) {\r\n            if (rewardKeys[i] == _points) {\r\n                rewardKeys[i] = rewardKeys[rewardKeys.length - 1];\r\n                rewardKeys.pop();\r\n                emit RewardDeleted(_points, msg.sender, block.timestamp);\r\n                break;\r\n            }\r\n        }\r\n    }\r\n\r\n    function getReward(uint256 _points) public view returns (uint256 etherReward, string memory otherReward) {\r\n        etherReward = etherRewards[_points];\r\n        otherReward = otherRewards[_points];\r\n\r\n        if (etherReward > 0) {\r\n            return (etherReward, \"\");\r\n        } else if (bytes(otherReward).length > 0) {\r\n            return (0, otherReward);\r\n        } else {\r\n            revert(\"No reward found for the specified points.\");\r\n        }\r\n    }\r\n\r\n    function redeemPoints(uint256 pointsToRedeem) public {\r\n        address payable account = payable(msg.sender);\r\n        require(points[account] >= pointsToRedeem, \"Not enough points.\");\r\n\r\n        if (etherRewards[pointsToRedeem] > 0) {\r\n            uint256 etherValue = etherRewards[pointsToRedeem];\r\n            require(etherValue <= address(this).balance, \"Insufficient contract balance for Ether reward.\");\r\n            points[account] -= pointsToRedeem;\r\n            account.transfer(etherValue);\r\n            emit PointsRedeemed(account, pointsToRedeem, RewardType.Ether, \"Ether Reward\");\r\n        } else if (bytes(otherRewards[pointsToRedeem]).length > 0) {\r\n            string memory details = otherRewards[pointsToRedeem];\r\n            points[account] -= pointsToRedeem;\r\n            emit PointsRedeemed(account, pointsToRedeem, RewardType.Other, details);\r\n        } else {\r\n            revert(\"No reward available for the specified points.\");\r\n        }\r\n    }\r\n\r\n    function addPoints(address _account, uint256 pointsToAdd) public onlyOwner {\r\n        require(_account != address(0), \"Invalid account address.\");\r\n        require(pointsToAdd > 0, \"Points to add must be greater than zero.\");\r\n\r\n        points[_account] += pointsToAdd;\r\n        emit PointsAdded(_account, pointsToAdd);\r\n    }\r\n\r\n    function topUpContract() external payable onlyOwner {\r\n        require(msg.value > 0, \"Top-up amount must be greater than zero.\");\r\n        emit ContractToppedUp(msg.value);\r\n    }\r\n\r\n    function getPointsBalance(address _account) public view returns (uint256) {\r\n        require(_account != address(0), \"Invalid account address.\");\r\n        return points[_account];\r\n    }\r\n\r\n    function getContractBalance() public view returns (uint256) {\r\n        return address(this).balance;\r\n    }\r\n\r\n    function getRewardKeys() public view returns (uint256[] memory) {\r\n        return rewardKeys;\r\n    }\r\n}\r\n",
  "sourcePath": "C:\\Users\\faiza\\IdeaProjects\\SmileChain\\web3\\contracts\\Rewards.sol",
  "compiler": {
    "name": "solc",
    "version": "0.8.19+commit.7dd6d404.Emscripten.clang"
  },
  "schemaVersion": "3.4.16",
  "updatedAt": "2025-01-26T18:19:55.881Z",
  "networkType": "ethereum",
  "devdoc": {
    "kind": "dev",
    "methods": {},
    "version": 1
  },
  "userdoc": {
    "kind": "user",
    "methods": {},
    "version": 1
  }
}