{
  "contractName": "Rewards",
  "abi": [
    {
      "inputs": [],
      "stateMutability": "nonpayable",
      "type": "constructor"
    },
    {
      "anonymous": false,
      "inputs": [
        {
          "indexed": false,
          "internalType": "uint256",
          "name": "amount",
          "type": "uint256"
        }
      ],
      "name": "ContractToppedUp",
      "type": "event"
    },
    {
      "anonymous": false,
      "inputs": [
        {
          "indexed": true,
          "internalType": "uint256",
          "name": "points",
          "type": "uint256"
        },
        {
          "indexed": false,
          "internalType": "uint256",
          "name": "etherValue",
          "type": "uint256"
        },
        {
          "indexed": true,
          "internalType": "address",
          "name": "modifiedBy",
          "type": "address"
        },
        {
          "indexed": false,
          "internalType": "uint256",
          "name": "timestamp",
          "type": "uint256"
        }
      ],
      "name": "EtherRewardModified",
      "type": "event"
    },
    {
      "anonymous": false,
      "inputs": [
        {
          "indexed": true,
          "internalType": "uint256",
          "name": "points",
          "type": "uint256"
        },
        {
          "indexed": false,
          "internalType": "string",
          "name": "details",
          "type": "string"
        },
        {
          "indexed": true,
          "internalType": "address",
          "name": "modifiedBy",
          "type": "address"
        },
        {
          "indexed": false,
          "internalType": "uint256",
          "name": "timestamp",
          "type": "uint256"
        }
      ],
      "name": "OtherRewardModified",
      "type": "event"
    },
    {
      "anonymous": false,
      "inputs": [
        {
          "indexed": true,
          "internalType": "address",
          "name": "account",
          "type": "address"
        },
        {
          "indexed": false,
          "internalType": "uint256",
          "name": "pointsAdded",
          "type": "uint256"
        }
      ],
      "name": "PointsAdded",
      "type": "event"
    },
    {
      "anonymous": false,
      "inputs": [
        {
          "indexed": true,
          "internalType": "address",
          "name": "account",
          "type": "address"
        },
        {
          "indexed": false,
          "internalType": "uint256",
          "name": "pointsRedeemed",
          "type": "uint256"
        },
        {
          "indexed": false,
          "internalType": "enum Rewards.RewardType",
          "name": "rewardType",
          "type": "uint8"
        },
        {
          "indexed": false,
          "internalType": "string",
          "name": "rewardDetails",
          "type": "string"
        }
      ],
      "name": "PointsRedeemed",
      "type": "event"
    },
    {
      "inputs": [],
      "name": "owner",
      "outputs": [
        {
          "internalType": "address",
          "name": "",
          "type": "address"
        }
      ],
      "stateMutability": "view",
      "type": "function",
      "constant": true
    },
    {
      "inputs": [
        {
          "internalType": "uint256",
          "name": "",
          "type": "uint256"
        }
      ],
      "name": "rewardKeys",
      "outputs": [
        {
          "internalType": "uint256",
          "name": "",
          "type": "uint256"
        }
      ],
      "stateMutability": "view",
      "type": "function",
      "constant": true
    },
    {
      "inputs": [
        {
          "internalType": "uint256",
          "name": "_points",
          "type": "uint256"
        },
        {
          "internalType": "uint256",
          "name": "_etherValue",
          "type": "uint256"
        },
        {
          "internalType": "string",
          "name": "_details",
          "type": "string"
        }
      ],
      "name": "modifyReward",
      "outputs": [],
      "stateMutability": "nonpayable",
      "type": "function"
    },
    {
      "inputs": [
        {
          "internalType": "uint256",
          "name": "_points",
          "type": "uint256"
        }
      ],
      "name": "deleteReward",
      "outputs": [],
      "stateMutability": "nonpayable",
      "type": "function"
    },
    {
      "inputs": [
        {
          "internalType": "uint256",
          "name": "_points",
          "type": "uint256"
        }
      ],
      "name": "getReward",
      "outputs": [
        {
          "internalType": "uint256",
          "name": "etherReward",
          "type": "uint256"
        },
        {
          "internalType": "string",
          "name": "otherReward",
          "type": "string"
        }
      ],
      "stateMutability": "view",
      "type": "function",
      "constant": true
    },
    {
      "inputs": [
        {
          "internalType": "uint256",
          "name": "pointsToRedeem",
          "type": "uint256"
        }
      ],
      "name": "redeemPoints",
      "outputs": [],
      "stateMutability": "nonpayable",
      "type": "function"
    },
    {
      "inputs": [
        {
          "internalType": "address",
          "name": "_account",
          "type": "address"
        },
        {
          "internalType": "uint256",
          "name": "pointsToAdd",
          "type": "uint256"
        }
      ],
      "name": "addPoints",
      "outputs": [],
      "stateMutability": "nonpayable",
      "type": "function"
    },
    {
      "inputs": [],
      "name": "topUpContract",
      "outputs": [],
      "stateMutability": "payable",
      "type": "function",
      "payable": true
    },
    {
      "inputs": [
        {
          "internalType": "address",
          "name": "_account",
          "type": "address"
        }
      ],
      "name": "getPointsBalance",
      "outputs": [
        {
          "internalType": "uint256",
          "name": "",
          "type": "uint256"
        }
      ],
      "stateMutability": "view",
      "type": "function",
      "constant": true
    },
    {
      "inputs": [],
      "name": "getContractBalance",
      "outputs": [
        {
          "internalType": "uint256",
          "name": "",
          "type": "uint256"
        }
      ],
      "stateMutability": "view",
      "type": "function",
      "constant": true
    }
  ],
  "bytecode": "0x60a060405234801561001057600080fd5b503373ffffffffffffffffffffffffffffffffffffffff1660808173ffffffffffffffffffffffffffffffffffffffff1681525050608051611f5261007c6000396000818161039f0152818161064e01528181610854015281816108780152610a5c0152611f526000f3fe6080604052600436106100ae576000357c0100000000000000000000000000000000000000000000000000000000900480639b3b20d1116100765780639b3b20d114610199578063e229db93146101a3578063e707f36f146101e0578063e7cf1ab71461021d578063e92e92e714610246576100ae565b80631c4b774b146100b35780632eef0173146100f1578063507cd30f1461011a5780636f9fb98a146101435780638da5cb5b1461016e575b600080fd5b3480156100bf57600080fd5b506100da60048036038101906100d5919061104d565b61026f565b6040516100e8929190611119565b60405180910390f35b3480156100fd57600080fd5b506101186004803603810190610113919061127e565b61039d565b005b34801561012657600080fd5b50610141600480360381019061013c919061134b565b61064c565b005b34801561014f57600080fd5b50610158610833565b604051610165919061138b565b60405180910390f35b34801561017a57600080fd5b50610183610852565b60405161019091906113b5565b60405180910390f35b6101a1610876565b005b3480156101af57600080fd5b506101ca60048036038101906101c5919061104d565b610980565b6040516101d7919061138b565b60405180910390f35b3480156101ec57600080fd5b50610207600480360381019061020291906113d0565b6109a4565b604051610214919061138b565b60405180910390f35b34801561022957600080fd5b50610244600480360381019061023f919061104d565b610a5a565b005b34801561025257600080fd5b5061026d6004803603810190610268919061104d565b610be9565b005b60006060600160008481526020019081526020016000205491506002600084815260200190815260200160002080546102a79061142c565b80601f01602080910402602001604051908101604052809291908181526020018280546102d39061142c565b80156103205780601f106102f557610100808354040283529160200191610320565b820191906000526020600020905b81548152906001019060200180831161030357829003601f168201915b50505050509050600082111561034a57816040518060200160405280600081525091509150610398565b60008151111561035d5760009150610398565b6040517f08c379a000000000000000000000000000000000000000000000000000000000815260040161038f906114cf565b60405180910390fd5b915091565b7f000000000000000000000000000000000000000000000000000000000000000073ffffffffffffffffffffffffffffffffffffffff163373ffffffffffffffffffffffffffffffffffffffff161461042b576040517f08c379a000000000000000000000000000000000000000000000000000000000815260040161042290611561565b60405180910390fd5b6000831161046e576040517f08c379a0000000000000000000000000000000000000000000000000000000008152600401610465906115f3565b60405180910390fd5b6000821115610504578160016000858152602001908152602001600020819055506002600084815260200190815260200160002060006104ae9190610fa6565b3373ffffffffffffffffffffffffffffffffffffffff16837fbb3adf2e5eae69467f650e4d5046955148708d9696bfcf7f9eda0e1a64dadef384426040516104f7929190611613565b60405180910390a36105d8565b60008151111561059c578060026000858152602001908152602001600020908161052e91906117ee565b5060016000848152602001908152602001600020600090553373ffffffffffffffffffffffffffffffffffffffff16837f3ecb04e2e273f5fb263d0e9912585f2e7a1f1d6464541b358b744877c6d2e2f5834260405161058f9291906118c0565b60405180910390a36105d7565b6040517f08c379a00000000000000000000000000000000000000000000000000000000081526004016105ce90611962565b60405180910390fd5b5b600060016000858152602001908152602001600020541180610619575060006002600085815260200190815260200160002080546106159061142c565b9050115b6106475760038390806001815401808255809150506001900390600052602060002001600090919091909150555b505050565b7f000000000000000000000000000000000000000000000000000000000000000073ffffffffffffffffffffffffffffffffffffffff163373ffffffffffffffffffffffffffffffffffffffff16146106da576040517f08c379a00000000000000000000000000000000000000000000000000000000081526004016106d190611561565b60405180910390fd5b600073ffffffffffffffffffffffffffffffffffffffff168273ffffffffffffffffffffffffffffffffffffffff1603610749576040517f08c379a0000000000000000000000000000000000000000000000000000000008152600401610740906119ce565b60405180910390fd5b6000811161078c576040517f08c379a000000000000000000000000000000000000000000000000000000000815260040161078390611a60565b60405180910390fd5b806000808473ffffffffffffffffffffffffffffffffffffffff1673ffffffffffffffffffffffffffffffffffffffff16815260200190815260200160002060008282546107da9190611aaf565b925050819055508173ffffffffffffffffffffffffffffffffffffffff167f0fe6fcb45adaaa54f7e3491f6a7964049817f1e437f33587e634a4629fbcf3a682604051610827919061138b565b60405180910390a25050565b60003073ffffffffffffffffffffffffffffffffffffffff1631905090565b7f000000000000000000000000000000000000000000000000000000000000000081565b7f000000000000000000000000000000000000000000000000000000000000000073ffffffffffffffffffffffffffffffffffffffff163373ffffffffffffffffffffffffffffffffffffffff1614610904576040517f08c379a00000000000000000000000000000000000000000000000000000000081526004016108fb90611561565b60405180910390fd5b60003411610947576040517f08c379a000000000000000000000000000000000000000000000000000000000815260040161093e90611b55565b60405180910390fd5b7f13c6b5419cbef3b6ff82bd9ca5de643c7845cbdb2ad53bb39d29241ac7c3333834604051610976919061138b565b60405180910390a1565b6003818154811061099057600080fd5b906000526020600020016000915090505481565b60008073ffffffffffffffffffffffffffffffffffffffff168273ffffffffffffffffffffffffffffffffffffffff1603610a14576040517f08c379a0000000000000000000000000000000000000000000000000000000008152600401610a0b906119ce565b60405180910390fd5b6000808373ffffffffffffffffffffffffffffffffffffffff1673ffffffffffffffffffffffffffffffffffffffff168152602001908152602001600020549050919050565b7f000000000000000000000000000000000000000000000000000000000000000073ffffffffffffffffffffffffffffffffffffffff163373ffffffffffffffffffffffffffffffffffffffff1614610ae8576040517f08c379a0000000000000000000000000000000000000000000000000000000008152600401610adf90611561565b60405180910390fd5b6001600082815260200190815260200160002060009055600260008281526020019081526020016000206000610b1e9190610fa6565b60005b600380549050811015610be5578160038281548110610b4357610b42611b75565b5b906000526020600020015403610bd25760036001600380549050610b679190611ba4565b81548110610b7857610b77611b75565b5b906000526020600020015460038281548110610b9757610b96611b75565b5b90600052602060002001819055506003805480610bb757610bb6611bd8565b5b60019003818190600052602060002001600090559055610be5565b8080610bdd90611c07565b915050610b21565b5050565b6000339050816000808373ffffffffffffffffffffffffffffffffffffffff1673ffffffffffffffffffffffffffffffffffffffff168152602001908152602001600020541015610c6f576040517f08c379a0000000000000000000000000000000000000000000000000000000008152600401610c6690611c9b565b60405180910390fd5b600060016000848152602001908152602001600020541115610df0576000600160008481526020019081526020016000205490503073ffffffffffffffffffffffffffffffffffffffff1631811115610cfd576040517f08c379a0000000000000000000000000000000000000000000000000000000008152600401610cf490611d2d565b60405180910390fd5b826000808473ffffffffffffffffffffffffffffffffffffffff1673ffffffffffffffffffffffffffffffffffffffff1681526020019081526020016000206000828254610d4b9190611ba4565b925050819055508173ffffffffffffffffffffffffffffffffffffffff166108fc829081150290604051600060405180830381858888f19350505050158015610d98573d6000803e3d6000fd5b508173ffffffffffffffffffffffffffffffffffffffff167f42a1741bd0d8bd5b606cad469a80c77c77963120ab9aab9def119d844f74ae64846000604051610de2929190611e10565b60405180910390a250610fa2565b6000600260008481526020019081526020016000208054610e109061142c565b90501115610f66576000600260008481526020019081526020016000208054610e389061142c565b80601f0160208091040260200160405190810160405280929190818152602001828054610e649061142c565b8015610eb15780601f10610e8657610100808354040283529160200191610eb1565b820191906000526020600020905b815481529060010190602001808311610e9457829003601f168201915b50505050509050826000808473ffffffffffffffffffffffffffffffffffffffff1673ffffffffffffffffffffffffffffffffffffffff1681526020019081526020016000206000828254610f069190611ba4565b925050819055508173ffffffffffffffffffffffffffffffffffffffff167f42a1741bd0d8bd5b606cad469a80c77c77963120ab9aab9def119d844f74ae6484600184604051610f5893929190611e4c565b60405180910390a250610fa1565b6040517f08c379a0000000000000000000000000000000000000000000000000000000008152600401610f9890611efc565b60405180910390fd5b5b5050565b508054610fb29061142c565b6000825580601f10610fc45750610fe3565b601f016020900490600052602060002090810190610fe29190610fe6565b5b50565b5b80821115610fff576000816000905550600101610fe7565b5090565b6000604051905090565b600080fd5b600080fd5b6000819050919050565b61102a81611017565b811461103557600080fd5b50565b60008135905061104781611021565b92915050565b6000602082840312156110635761106261100d565b5b600061107184828501611038565b91505092915050565b61108381611017565b82525050565b600081519050919050565b600082825260208201905092915050565b60005b838110156110c35780820151818401526020810190506110a8565b60008484015250505050565b6000601f19601f8301169050919050565b60006110eb82611089565b6110f58185611094565b93506111058185602086016110a5565b61110e816110cf565b840191505092915050565b600060408201905061112e600083018561107a565b818103602083015261114081846110e0565b90509392505050565b600080fd5b600080fd5b7f4e487b7100000000000000000000000000000000000000000000000000000000600052604160045260246000fd5b61118b826110cf565b810181811067ffffffffffffffff821117156111aa576111a9611153565b5b80604052505050565b60006111bd611003565b90506111c98282611182565b919050565b600067ffffffffffffffff8211156111e9576111e8611153565b5b6111f2826110cf565b9050602081019050919050565b82818337600083830152505050565b600061122161121c846111ce565b6111b3565b90508281526020810184848401111561123d5761123c61114e565b5b6112488482856111ff565b509392505050565b600082601f83011261126557611264611149565b5b813561127584826020860161120e565b91505092915050565b6000806000606084860312156112975761129661100d565b5b60006112a586828701611038565b93505060206112b686828701611038565b925050604084013567ffffffffffffffff8111156112d7576112d6611012565b5b6112e386828701611250565b9150509250925092565b600073ffffffffffffffffffffffffffffffffffffffff82169050919050565b6000611318826112ed565b9050919050565b6113288161130d565b811461133357600080fd5b50565b6000813590506113458161131f565b92915050565b600080604083850312156113625761136161100d565b5b600061137085828601611336565b925050602061138185828601611038565b9150509250929050565b60006020820190506113a0600083018461107a565b92915050565b6113af8161130d565b82525050565b60006020820190506113ca60008301846113a6565b92915050565b6000602082840312156113e6576113e561100d565b5b60006113f484828501611336565b91505092915050565b7f4e487b7100000000000000000000000000000000000000000000000000000000600052602260045260246000fd5b6000600282049050600182168061144457607f821691505b602082108103611457576114566113fd565b5b50919050565b7f4e6f2072657761726420666f756e6420666f722074686520737065636966696560008201527f6420706f696e74732e0000000000000000000000000000000000000000000000602082015250565b60006114b9602983611094565b91506114c48261145d565b604082019050919050565b600060208201905081810360008301526114e8816114ac565b9050919050565b7f4f6e6c7920746865206f776e65722063616e2063616c6c20746869732066756e60008201527f6374696f6e2e0000000000000000000000000000000000000000000000000000602082015250565b600061154b602683611094565b9150611556826114ef565b604082019050919050565b6000602082019050818103600083015261157a8161153e565b9050919050565b7f506f696e7473206d7573742062652067726561746572207468616e207a65726f60008201527f2e00000000000000000000000000000000000000000000000000000000000000602082015250565b60006115dd602183611094565b91506115e882611581565b604082019050919050565b6000602082019050818103600083015261160c816115d0565b9050919050565b6000604082019050611628600083018561107a565b611635602083018461107a565b9392505050565b60008190508160005260206000209050919050565b60006020601f8301049050919050565b60008160020a8302905092915050565b6000600883026116a17fffffffffffffffffffffffffffffffffffffffffffffffffffffffffffffffff82611661565b6116ab8683611661565b95508019841693508086168417925050509392505050565b6000819050919050565b60006116e86116e36116de84611017565b6116c3565b611017565b9050919050565b6000819050919050565b611702836116cd565b61171661170e826116ef565b848454611671565b825550505050565b600090565b61172b61171e565b6117368184846116f9565b505050565b5b8181101561175a5761174f600082611723565b60018101905061173c565b5050565b601f82111561179f576117708161163c565b61177984611651565b81016020851015611788578190505b61179c61179485611651565b83018261173b565b50505b505050565b60008160020a8304905092915050565b60006117c5600019846008026117a4565b1980831691505092915050565b60006117de83836117b4565b9150826002028217905092915050565b6117f782611089565b67ffffffffffffffff8111156118105761180f611153565b5b61181a825461142c565b61182582828561175e565b600060209050601f8311600181146118585760008415611846578287015190505b61185085826117d2565b8655506118b8565b601f1984166118668661163c565b60005b8281101561188e57848901518255600182019150602085019450602081019050611869565b868310156118ab57848901516118a7601f8916826117b4565b8355505b6001600288020188555050505b505050505050565b600060408201905081810360008301526118da81856110e0565b90506118e9602083018461107a565b9392505050565b7f45697468657220657468657256616c7565206f722064657461696c73206d757360008201527f742062652070726f76696465642e000000000000000000000000000000000000602082015250565b600061194c602e83611094565b9150611957826118f0565b604082019050919050565b6000602082019050818103600083015261197b8161193f565b9050919050565b7f496e76616c6964206163636f756e7420616464726573732e0000000000000000600082015250565b60006119b8601883611094565b91506119c382611982565b602082019050919050565b600060208201905081810360008301526119e7816119ab565b9050919050565b7f506f696e747320746f20616464206d757374206265206772656174657220746860008201527f616e207a65726f2e000000000000000000000000000000000000000000000000602082015250565b6000611a4a602883611094565b9150611a55826119ee565b604082019050919050565b60006020820190508181036000830152611a7981611a3d565b9050919050565b7f4e487b7100000000000000000000000000000000000000000000000000000000600052601160045260246000fd5b6000611aba82611017565b9150611ac583611017565b9250828201905080821115611add57611adc611a80565b5b92915050565b7f546f702d757020616d6f756e74206d757374206265206772656174657220746860008201527f616e207a65726f2e000000000000000000000000000000000000000000000000602082015250565b6000611b3f602883611094565b9150611b4a82611ae3565b604082019050919050565b60006020820190508181036000830152611b6e81611b32565b9050919050565b7f4e487b7100000000000000000000000000000000000000000000000000000000600052603260045260246000fd5b6000611baf82611017565b9150611bba83611017565b9250828203905081811115611bd257611bd1611a80565b5b92915050565b7f4e487b7100000000000000000000000000000000000000000000000000000000600052603160045260246000fd5b6000611c1282611017565b91507fffffffffffffffffffffffffffffffffffffffffffffffffffffffffffffffff8203611c4457611c43611a80565b5b600182019050919050565b7f4e6f7420656e6f75676820706f696e74732e0000000000000000000000000000600082015250565b6000611c85601283611094565b9150611c9082611c4f565b602082019050919050565b60006020820190508181036000830152611cb481611c78565b9050919050565b7f496e73756666696369656e7420636f6e74726163742062616c616e636520666f60008201527f72204574686572207265776172642e0000000000000000000000000000000000602082015250565b6000611d17602f83611094565b9150611d2282611cbb565b604082019050919050565b60006020820190508181036000830152611d4681611d0a565b9050919050565b7f4e487b7100000000000000000000000000000000000000000000000000000000600052602160045260246000fd5b60028110611d8d57611d8c611d4d565b5b50565b6000819050611d9e82611d7c565b919050565b6000611dae82611d90565b9050919050565b611dbe81611da3565b82525050565b7f4574686572205265776172640000000000000000000000000000000000000000600082015250565b6000611dfa600c83611094565b9150611e0582611dc4565b602082019050919050565b6000606082019050611e25600083018561107a565b611e326020830184611db5565b8181036040830152611e4381611ded565b90509392505050565b6000606082019050611e61600083018661107a565b611e6e6020830185611db5565b8181036040830152611e8081846110e0565b9050949350505050565b7f4e6f2072657761726420617661696c61626c6520666f7220746865207370656360008201527f696669656420706f696e74732e00000000000000000000000000000000000000602082015250565b6000611ee6602d83611094565b9150611ef182611e8a565b604082019050919050565b60006020820190508181036000830152611f1581611ed9565b905091905056fea2646970667358221220bb6e7b805bc9ef0dadc2ab6bd968afaf76c2417a1f8233709fd31230f0a4a3c064736f6c63430008130033",
  "immutableReferences": {
    "6": [
      {
        "length": 32,
        "start": 927
      },
      {
        "length": 32,
        "start": 1614
      },
      {
        "length": 32,
        "start": 2132
      },
      {
        "length": 32,
        "start": 2168
      },
      {
        "length": 32,
        "start": 2652
      }
    ]
  },
  "source": "// SPDX-License-Identifier: MIT\r\npragma solidity >=0.8.0 <0.9.0;\r\n\r\ncontract Rewards {\r\n    enum RewardType {Ether, Other}\r\n\r\n    address public immutable owner;\r\n    mapping(address => uint256) private points;\r\n    mapping(uint256 => uint256) private etherRewards;\r\n    mapping(uint256 => string) private otherRewards;\r\n    uint256[] public rewardKeys; // Stores the points associated with all rewards\r\n\r\n    event PointsAdded(address indexed account, uint256 pointsAdded);\r\n    event PointsRedeemed(address indexed account, uint256 pointsRedeemed, RewardType rewardType, string rewardDetails);\r\n    event ContractToppedUp(uint256 amount);\r\n    event EtherRewardModified(uint256 indexed points, uint256 etherValue, address indexed modifiedBy, uint256 timestamp);\r\n    event OtherRewardModified(uint256 indexed points, string details, address indexed modifiedBy, uint256 timestamp);\r\n\r\n    constructor() {\r\n        owner = msg.sender;\r\n    }\r\n\r\n    modifier onlyOwner() {\r\n        require(msg.sender == owner, \"Only the owner can call this function.\");\r\n        _;\r\n    }\r\n\r\n    function modifyReward(uint256 _points, uint256 _etherValue, string memory _details) public onlyOwner {\r\n        require(_points > 0, \"Points must be greater than zero.\");\r\n\r\n        if (_etherValue > 0) {\r\n            etherRewards[_points] = _etherValue;\r\n            delete otherRewards[_points];\r\n            emit EtherRewardModified(_points, _etherValue, msg.sender, block.timestamp);\r\n        } else if (bytes(_details).length > 0) {\r\n            otherRewards[_points] = _details;\r\n            delete etherRewards[_points];\r\n            emit OtherRewardModified(_points, _details, msg.sender, block.timestamp);\r\n        } else {\r\n            revert(\"Either etherValue or details must be provided.\");\r\n        }\r\n\r\n        if (\r\n            !(etherRewards[_points] > 0 ||\r\n            bytes(otherRewards[_points]).length > 0)\r\n        ) {\r\n            rewardKeys.push(_points);\r\n        }\r\n    }\r\n\r\n    function deleteReward(uint256 _points) public onlyOwner {\r\n        delete etherRewards[_points];\r\n        delete otherRewards[_points];\r\n\r\n        for (uint256 i = 0; i < rewardKeys.length; i++) {\r\n            if (rewardKeys[i] == _points) {\r\n                rewardKeys[i] = rewardKeys[rewardKeys.length - 1];\r\n                rewardKeys.pop();\r\n                break;\r\n            }\r\n        }\r\n    }\r\n\r\n    function getReward(uint256 _points) public view returns (uint256 etherReward, string memory otherReward) {\r\n        etherReward = etherRewards[_points];\r\n        otherReward = otherRewards[_points];\r\n\r\n        if (etherReward > 0) {\r\n            return (etherReward, \"\");\r\n        } else if (bytes(otherReward).length > 0) {\r\n            return (0, otherReward);\r\n        } else {\r\n            revert(\"No reward found for the specified points.\");\r\n        }\r\n    }\r\n\r\n    function redeemPoints(uint256 pointsToRedeem) public {\r\n        address payable account = payable(msg.sender);\r\n        require(points[account] >= pointsToRedeem, \"Not enough points.\");\r\n\r\n        if (etherRewards[pointsToRedeem] > 0) {\r\n            uint256 etherValue = etherRewards[pointsToRedeem];\r\n            require(etherValue <= address(this).balance, \"Insufficient contract balance for Ether reward.\");\r\n            points[account] -= pointsToRedeem;\r\n            account.transfer(etherValue);\r\n            emit PointsRedeemed(account, pointsToRedeem, RewardType.Ether, \"Ether Reward\");\r\n        } else if (bytes(otherRewards[pointsToRedeem]).length > 0) {\r\n            string memory details = otherRewards[pointsToRedeem];\r\n            points[account] -= pointsToRedeem;\r\n            emit PointsRedeemed(account, pointsToRedeem, RewardType.Other, details);\r\n        } else {\r\n            revert(\"No reward available for the specified points.\");\r\n        }\r\n    }\r\n\r\n    function addPoints(address _account, uint256 pointsToAdd) public onlyOwner {\r\n        require(_account != address(0), \"Invalid account address.\");\r\n        require(pointsToAdd > 0, \"Points to add must be greater than zero.\");\r\n\r\n        points[_account] += pointsToAdd;\r\n        emit PointsAdded(_account, pointsToAdd);\r\n    }\r\n\r\n    function topUpContract() external payable onlyOwner {\r\n        require(msg.value > 0, \"Top-up amount must be greater than zero.\");\r\n        emit ContractToppedUp(msg.value);\r\n    }\r\n\r\n    function getPointsBalance(address _account) public view returns (uint256) {\r\n        require(_account != address(0), \"Invalid account address.\");\r\n        return points[_account];\r\n    }\r\n\r\n    function getContractBalance() public view returns (uint256) {\r\n        return address(this).balance;\r\n    }\r\n}",
  "sourcePath": "C:\\Users\\faiza\\IdeaProjects\\SmileChain\\web3\\contracts\\Rewards.sol",
  "compiler": {
    "name": "solc",
    "version": "0.8.19+commit.7dd6d404.Emscripten.clang"
  },
  "schemaVersion": "3.4.16",
  "updatedAt": "2025-01-16T10:47:29.105Z",
  "networkType": "ethereum",
  "devdoc": {
    "kind": "dev",
    "methods": {},
    "version": 1
  },
  "userdoc": {
    "kind": "user",
    "methods": {},
    "version": 1
  }
}