{
  "contractName": "Rewards",
  "abi": [
    {
      "inputs": [],
      "stateMutability": "nonpayable",
      "type": "constructor"
    },
    {
      "anonymous": false,
      "inputs": [
        {
          "indexed": false,
          "internalType": "uint256",
          "name": "amount",
          "type": "uint256"
        }
      ],
      "name": "ContractToppedUp",
      "type": "event"
    },
    {
      "anonymous": false,
      "inputs": [
        {
          "indexed": true,
          "internalType": "address",
          "name": "account",
          "type": "address"
        },
        {
          "indexed": false,
          "internalType": "uint256",
          "name": "pointsAdded",
          "type": "uint256"
        }
      ],
      "name": "PointsAdded",
      "type": "event"
    },
    {
      "anonymous": false,
      "inputs": [
        {
          "indexed": true,
          "internalType": "address",
          "name": "account",
          "type": "address"
        },
        {
          "indexed": false,
          "internalType": "uint256",
          "name": "pointsRedeemed",
          "type": "uint256"
        },
        {
          "indexed": false,
          "internalType": "uint256",
          "name": "ethersTransferred",
          "type": "uint256"
        }
      ],
      "name": "PointsRedeemed",
      "type": "event"
    },
    {
      "inputs": [],
      "name": "owner",
      "outputs": [
        {
          "internalType": "address",
          "name": "",
          "type": "address"
        }
      ],
      "stateMutability": "view",
      "type": "function",
      "constant": true
    },
    {
      "inputs": [
        {
          "internalType": "address",
          "name": "_account",
          "type": "address"
        },
        {
          "internalType": "uint256",
          "name": "pointsToAdd",
          "type": "uint256"
        }
      ],
      "name": "addPoints",
      "outputs": [],
      "stateMutability": "nonpayable",
      "type": "function"
    },
    {
      "inputs": [
        {
          "internalType": "uint256",
          "name": "pointsToRedeem",
          "type": "uint256"
        },
        {
          "internalType": "uint256",
          "name": "etherAmount",
          "type": "uint256"
        }
      ],
      "name": "redeemPoints",
      "outputs": [],
      "stateMutability": "nonpayable",
      "type": "function"
    },
    {
      "inputs": [
        {
          "internalType": "uint256",
          "name": "requiredAmount",
          "type": "uint256"
        }
      ],
      "name": "topUpContract",
      "outputs": [],
      "stateMutability": "payable",
      "type": "function",
      "payable": true
    },
    {
      "inputs": [
        {
          "internalType": "address",
          "name": "_account",
          "type": "address"
        }
      ],
      "name": "getPointsBalance",
      "outputs": [
        {
          "internalType": "uint256",
          "name": "",
          "type": "uint256"
        }
      ],
      "stateMutability": "view",
      "type": "function",
      "constant": true
    },
    {
      "inputs": [],
      "name": "getContractBalance",
      "outputs": [
        {
          "internalType": "uint256",
          "name": "",
          "type": "uint256"
        }
      ],
      "stateMutability": "view",
      "type": "function",
      "constant": true
    }
  ],
  "bytecode": "0x608060405234801561001057600080fd5b5033600160006101000a81548173ffffffffffffffffffffffffffffffffffffffff021916908373ffffffffffffffffffffffffffffffffffffffff160217905550610f3b806100616000396000f3fe608060405260043610610072576000357c010000000000000000000000000000000000000000000000000000000090048063507cd30f146100775780636f9fb98a146100a05780638da5cb5b146100cb578063c2e70431146100f6578063cb01b82e1461011f578063e707f36f1461013b575b600080fd5b34801561008357600080fd5b5061009e600480360381019061009991906108e8565b610178565b005b3480156100ac57600080fd5b506100b56103f0565b6040516100c29190610937565b60405180910390f35b3480156100d757600080fd5b506100e061040f565b6040516100ed9190610961565b60405180910390f35b34801561010257600080fd5b5061011d6004803603810190610118919061097c565b610435565b005b610139600480360381019061013491906109bc565b610649565b005b34801561014757600080fd5b50610162600480360381019061015d91906109e9565b610799565b60405161016f9190610937565b60405180910390f35b600160009054906101000a900473ffffffffffffffffffffffffffffffffffffffff1673ffffffffffffffffffffffffffffffffffffffff163373ffffffffffffffffffffffffffffffffffffffff1614610208576040517f08c379a00000000000000000000000000000000000000000000000000000000081526004016101ff90610a99565b60405180910390fd5b600073ffffffffffffffffffffffffffffffffffffffff168273ffffffffffffffffffffffffffffffffffffffff1603610277576040517f08c379a000000000000000000000000000000000000000000000000000000000815260040161026e90610b05565b60405180910390fd5b600081116102ba576040517f08c379a00000000000000000000000000000000000000000000000000000000081526004016102b190610b97565b60405180910390fd5b60008060008473ffffffffffffffffffffffffffffffffffffffff1673ffffffffffffffffffffffffffffffffffffffff168152602001908152602001600020540361034857806000808473ffffffffffffffffffffffffffffffffffffffff1673ffffffffffffffffffffffffffffffffffffffff1681526020019081526020016000208190555061039e565b806000808473ffffffffffffffffffffffffffffffffffffffff1673ffffffffffffffffffffffffffffffffffffffff16815260200190815260200160002060008282546103969190610be6565b925050819055505b8173ffffffffffffffffffffffffffffffffffffffff167f0fe6fcb45adaaa54f7e3491f6a7964049817f1e437f33587e634a4629fbcf3a6826040516103e49190610937565b60405180910390a25050565b60003073ffffffffffffffffffffffffffffffffffffffff1631905090565b600160009054906101000a900473ffffffffffffffffffffffffffffffffffffffff1681565b6000339050826000808373ffffffffffffffffffffffffffffffffffffffff1673ffffffffffffffffffffffffffffffffffffffff1681526020019081526020016000205410156104bb576040517f08c379a00000000000000000000000000000000000000000000000000000000081526004016104b290610c66565b60405180910390fd5b600082116104fe576040517f08c379a00000000000000000000000000000000000000000000000000000000081526004016104f590610cf8565b60405180910390fd5b3073ffffffffffffffffffffffffffffffffffffffff1631821115610558576040517f08c379a000000000000000000000000000000000000000000000000000000000815260040161054f90610d64565b60405180910390fd5b826000808373ffffffffffffffffffffffffffffffffffffffff1673ffffffffffffffffffffffffffffffffffffffff16815260200190815260200160002060008282546105a69190610d84565b925050819055508073ffffffffffffffffffffffffffffffffffffffff166108fc839081150290604051600060405180830381858888f193505050501580156105f3573d6000803e3d6000fd5b508073ffffffffffffffffffffffffffffffffffffffff167f8489cc43a42dbf9d33259b91b6c919c19644ac3b135272570f33f989637a1102848460405161063c929190610db8565b60405180910390a2505050565b600160009054906101000a900473ffffffffffffffffffffffffffffffffffffffff1673ffffffffffffffffffffffffffffffffffffffff163373ffffffffffffffffffffffffffffffffffffffff16146106d9576040517f08c379a00000000000000000000000000000000000000000000000000000000081526004016106d090610a99565b60405180910390fd5b6000811161071c576040517f08c379a000000000000000000000000000000000000000000000000000000000815260040161071390610e53565b60405180910390fd5b8034101561075f576040517f08c379a000000000000000000000000000000000000000000000000000000000815260040161075690610ee5565b60405180910390fd5b7f13c6b5419cbef3b6ff82bd9ca5de643c7845cbdb2ad53bb39d29241ac7c333388160405161078e9190610937565b60405180910390a150565b60008073ffffffffffffffffffffffffffffffffffffffff168273ffffffffffffffffffffffffffffffffffffffff1603610809576040517f08c379a000000000000000000000000000000000000000000000000000000000815260040161080090610b05565b60405180910390fd5b6000808373ffffffffffffffffffffffffffffffffffffffff1673ffffffffffffffffffffffffffffffffffffffff168152602001908152602001600020549050919050565b600080fd5b600073ffffffffffffffffffffffffffffffffffffffff82169050919050565b600061087f82610854565b9050919050565b61088f81610874565b811461089a57600080fd5b50565b6000813590506108ac81610886565b92915050565b6000819050919050565b6108c5816108b2565b81146108d057600080fd5b50565b6000813590506108e2816108bc565b92915050565b600080604083850312156108ff576108fe61084f565b5b600061090d8582860161089d565b925050602061091e858286016108d3565b9150509250929050565b610931816108b2565b82525050565b600060208201905061094c6000830184610928565b92915050565b61095b81610874565b82525050565b60006020820190506109766000830184610952565b92915050565b600080604083850312156109935761099261084f565b5b60006109a1858286016108d3565b92505060206109b2858286016108d3565b9150509250929050565b6000602082840312156109d2576109d161084f565b5b60006109e0848285016108d3565b91505092915050565b6000602082840312156109ff576109fe61084f565b5b6000610a0d8482850161089d565b91505092915050565b600082825260208201905092915050565b7f4f6e6c7920746865206f776e65722063616e2063616c6c20746869732066756e60008201527f6374696f6e2e0000000000000000000000000000000000000000000000000000602082015250565b6000610a83602683610a16565b9150610a8e82610a27565b604082019050919050565b60006020820190508181036000830152610ab281610a76565b9050919050565b7f496e76616c6964206163636f756e7420616464726573732e0000000000000000600082015250565b6000610aef601883610a16565b9150610afa82610ab9565b602082019050919050565b60006020820190508181036000830152610b1e81610ae2565b9050919050565b7f506f696e747320746f20616464206d757374206265206772656174657220746860008201527f616e207a65726f2e000000000000000000000000000000000000000000000000602082015250565b6000610b81602883610a16565b9150610b8c82610b25565b604082019050919050565b60006020820190508181036000830152610bb081610b74565b9050919050565b7f4e487b7100000000000000000000000000000000000000000000000000000000600052601160045260246000fd5b6000610bf1826108b2565b9150610bfc836108b2565b9250828201905080821115610c1457610c13610bb7565b5b92915050565b7f4e6f7420656e6f75676820706f696e74732e0000000000000000000000000000600082015250565b6000610c50601283610a16565b9150610c5b82610c1a565b602082019050919050565b60006020820190508181036000830152610c7f81610c43565b9050919050565b7f457468657220616d6f756e74206d75737420626520677265617465722074686160008201527f6e207a65726f2e00000000000000000000000000000000000000000000000000602082015250565b6000610ce2602783610a16565b9150610ced82610c86565b604082019050919050565b60006020820190508181036000830152610d1181610cd5565b9050919050565b7f496e73756666696369656e7420636f6e74726163742062616c616e63652e0000600082015250565b6000610d4e601e83610a16565b9150610d5982610d18565b602082019050919050565b60006020820190508181036000830152610d7d81610d41565b9050919050565b6000610d8f826108b2565b9150610d9a836108b2565b9250828203905081811115610db257610db1610bb7565b5b92915050565b6000604082019050610dcd6000830185610928565b610dda6020830184610928565b9392505050565b7f546f702d757020616d6f756e74206d757374206265206772656174657220746860008201527f616e207a65726f2e000000000000000000000000000000000000000000000000602082015250565b6000610e3d602883610a16565b9150610e4882610de1565b604082019050919050565b60006020820190508181036000830152610e6c81610e30565b9050919050565b7f496e73756666696369656e742045746865722073656e7420666f7220746f702d60008201527f75702e0000000000000000000000000000000000000000000000000000000000602082015250565b6000610ecf602383610a16565b9150610eda82610e73565b604082019050919050565b60006020820190508181036000830152610efe81610ec2565b905091905056fea264697066735822122056c6c093da2c1720a943f2a2fd35bd91ec54f9d8387a51daa219b421654ff7ef64736f6c63430008130033",
  "immutableReferences": {},
  "source": "// SPDX-License-Identifier: MIT\r\npragma solidity >=0.8.0 <0.9.0;\r\n\r\ncontract Rewards {\r\n    mapping(address => uint256) private points;\r\n    address public owner;\r\n\r\n    event PointsAdded(address indexed account, uint256 pointsAdded);\r\n    event PointsRedeemed(address indexed account, uint256 pointsRedeemed, uint256 ethersTransferred);\r\n    event ContractToppedUp(uint256 amount);\r\n\r\n    modifier onlyOwner() {\r\n        require(msg.sender == owner, \"Only the owner can call this function.\");\r\n        _;\r\n    }\r\n\r\n    constructor() {\r\n        owner = msg.sender;\r\n    }\r\n\r\n    function addPoints(address _account, uint256 pointsToAdd) public onlyOwner {\r\n        require(_account != address(0), \"Invalid account address.\");\r\n        require(pointsToAdd > 0, \"Points to add must be greater than zero.\");\r\n\r\n        // Automatically initialize account if it does not exist\r\n        if (points[_account] == 0) {\r\n            points[_account] = pointsToAdd;\r\n        } else {\r\n            points[_account] += pointsToAdd;\r\n        }\r\n\r\n        emit PointsAdded(_account, pointsToAdd);\r\n    }\r\n\r\n    function redeemPoints(uint256 pointsToRedeem, uint256 etherAmount) public {\r\n        address payable account = payable(msg.sender);\r\n\r\n        require(points[account] >= pointsToRedeem, \"Not enough points.\");\r\n        require(etherAmount > 0, \"Ether amount must be greater than zero.\");\r\n        require(etherAmount <= address(this).balance, \"Insufficient contract balance.\");\r\n\r\n        points[account] -= pointsToRedeem;\r\n        account.transfer(etherAmount);\r\n\r\n        emit PointsRedeemed(account, pointsToRedeem, etherAmount);\r\n    }\r\n\r\n    function topUpContract(uint256 requiredAmount) external onlyOwner payable {\r\n        require(requiredAmount > 0, \"Top-up amount must be greater than zero.\");\r\n        require(msg.value >= requiredAmount, \"Insufficient Ether sent for top-up.\");\r\n\r\n        emit ContractToppedUp(requiredAmount);\r\n    }\r\n\r\n    function getPointsBalance(address _account) public view returns (uint256) {\r\n        require(_account != address(0), \"Invalid account address.\");\r\n        return points[_account];\r\n    }\r\n\r\n    function getContractBalance() public view returns (uint256) {\r\n        return address(this).balance;\r\n    }\r\n}\r\n",
  "sourcePath": "C:\\Users\\faiza\\IdeaProjects\\SmileChain\\web3\\contracts\\Rewards.sol",
  "compiler": {
    "name": "solc",
    "version": "0.8.19+commit.7dd6d404.Emscripten.clang"
  },
  "schemaVersion": "3.4.16",
  "updatedAt": "2025-01-13T14:57:34.881Z",
  "networkType": "ethereum",
  "devdoc": {
    "kind": "dev",
    "methods": {},
    "version": 1
  },
  "userdoc": {
    "kind": "user",
    "methods": {},
    "version": 1
  }
}